{
  "contractName": "agentsregister",
  "abi": [
    {
      "constant": true,
      "inputs": [
        {
          "name": "",
          "type": "uint256"
        }
      ],
      "name": "usernames",
      "outputs": [
        {
          "name": "",
          "type": "string"
        }
      ],
      "payable": false,
      "stateMutability": "view",
      "type": "function"
    },
    {
      "constant": true,
      "inputs": [],
      "name": "user_var",
      "outputs": [
        {
          "name": "uid",
          "type": "uint256"
        },
        {
          "name": "name",
          "type": "string"
        },
        {
          "name": "latitude",
          "type": "int256"
        },
        {
          "name": "longitude",
          "type": "int256"
        },
        {
          "name": "no_requestsmade",
          "type": "uint256"
        },
        {
          "name": "uname",
          "type": "string"
        },
        {
          "name": "pass",
          "type": "string"
        },
        {
          "name": "add",
          "type": "address"
        },
        {
          "name": "contact",
          "type": "string"
        }
      ],
      "payable": false,
      "stateMutability": "view",
      "type": "function"
    },
    {
      "constant": true,
      "inputs": [],
      "name": "temp_trans",
      "outputs": [
        {
          "name": "from",
          "type": "address"
        },
        {
          "name": "to",
          "type": "address"
        },
        {
          "name": "amount",
          "type": "uint256"
        },
        {
          "name": "duration",
          "type": "uint256"
        }
      ],
      "payable": false,
      "stateMutability": "view",
      "type": "function"
    },
    {
      "constant": true,
      "inputs": [],
      "name": "size",
      "outputs": [
        {
          "name": "",
          "type": "uint256"
        }
      ],
      "payable": false,
      "stateMutability": "view",
      "type": "function"
    },
    {
      "constant": true,
      "inputs": [
        {
          "name": "",
          "type": "uint256"
        }
      ],
      "name": "transactions",
      "outputs": [
        {
          "name": "from",
          "type": "address"
        },
        {
          "name": "to",
          "type": "address"
        },
        {
          "name": "amount",
          "type": "uint256"
        },
        {
          "name": "duration",
          "type": "uint256"
        }
      ],
      "payable": false,
      "stateMutability": "view",
      "type": "function"
    },
    {
      "constant": true,
      "inputs": [],
      "name": "trans_count",
      "outputs": [
        {
          "name": "",
          "type": "uint256"
        }
      ],
      "payable": false,
      "stateMutability": "view",
      "type": "function"
    },
    {
      "constant": true,
      "inputs": [
        {
          "name": "",
          "type": "uint256"
        }
      ],
      "name": "accounts",
      "outputs": [
        {
          "name": "uid",
          "type": "uint256"
        },
        {
          "name": "name",
          "type": "string"
        },
        {
          "name": "latitude",
          "type": "int256"
        },
        {
          "name": "longitude",
          "type": "int256"
        },
        {
          "name": "no_requestsmade",
          "type": "uint256"
        },
        {
          "name": "uname",
          "type": "string"
        },
        {
          "name": "pass",
          "type": "string"
        },
        {
          "name": "add",
          "type": "address"
        },
        {
          "name": "contact",
          "type": "string"
        }
      ],
      "payable": false,
      "stateMutability": "view",
      "type": "function"
    },
    {
      "constant": true,
      "inputs": [],
      "name": "serial",
      "outputs": [
        {
          "name": "",
          "type": "uint256"
        }
      ],
      "payable": false,
      "stateMutability": "view",
      "type": "function"
    },
    {
      "constant": false,
      "inputs": [
        {
          "name": "from2",
          "type": "address"
        },
        {
          "name": "to2",
          "type": "address"
        },
        {
          "name": "amt2",
          "type": "uint256"
        },
        {
          "name": "duration2",
          "type": "uint256"
        }
      ],
      "name": "makereq",
      "outputs": [],
      "payable": false,
      "stateMutability": "nonpayable",
      "type": "function"
    },
    {
      "constant": false,
      "inputs": [
        {
          "name": "to_addr",
          "type": "address"
        },
        {
          "name": "amt",
          "type": "uint256"
        }
      ],
      "name": "sendMoney",
      "outputs": [],
      "payable": true,
      "stateMutability": "payable",
      "type": "function"
    },
    {
      "constant": true,
      "inputs": [
        {
          "name": "add",
          "type": "address"
        }
      ],
      "name": "getBalanceAddr",
      "outputs": [
        {
          "name": "",
          "type": "uint256"
        }
      ],
      "payable": false,
      "stateMutability": "view",
      "type": "function"
    },
    {
      "constant": false,
      "inputs": [
        {
          "name": "name2",
          "type": "string"
        },
        {
          "name": "latitude2",
          "type": "int256"
        },
        {
          "name": "longitude2",
          "type": "int256"
        }
      ],
      "name": "newacc",
      "outputs": [],
      "payable": false,
      "stateMutability": "nonpayable",
      "type": "function"
    },
    {
      "constant": false,
      "inputs": [
        {
          "name": "contact2",
          "type": "string"
        },
        {
          "name": "uname2",
          "type": "string"
        },
        {
          "name": "pass2",
          "type": "string"
        },
        {
          "name": "add2",
          "type": "address"
        }
      ],
      "name": "newacc_2",
      "outputs": [],
      "payable": false,
      "stateMutability": "nonpayable",
      "type": "function"
    },
    {
      "constant": true,
      "inputs": [
        {
          "name": "uname2",
          "type": "string"
        },
        {
          "name": "pass2",
          "type": "string"
        }
      ],
      "name": "check_account",
      "outputs": [
        {
          "name": "",
          "type": "bool"
        }
      ],
      "payable": false,
      "stateMutability": "view",
      "type": "function"
    },
    {
      "constant": true,
      "inputs": [
        {
          "name": "uname2",
          "type": "string"
        }
      ],
      "name": "get_details_name",
      "outputs": [
        {
          "name": "name2",
          "type": "string"
        },
        {
          "name": "latitude2",
          "type": "int256"
        },
        {
          "name": "longitude2",
          "type": "int256"
        },
        {
          "name": "contact2",
          "type": "string"
        },
        {
          "name": "add2",
          "type": "address"
        }
      ],
      "payable": false,
      "stateMutability": "view",
      "type": "function"
    },
    {
      "constant": true,
      "inputs": [
        {
          "name": "uname2",
          "type": "string"
        }
      ],
      "name": "get_id",
      "outputs": [
        {
          "name": "id",
          "type": "uint256"
        }
      ],
      "payable": false,
      "stateMutability": "view",
      "type": "function"
    },
    {
      "constant": true,
      "inputs": [],
      "name": "getaccountlength",
      "outputs": [
        {
          "name": "",
          "type": "uint256"
        }
      ],
      "payable": false,
      "stateMutability": "view",
      "type": "function"
    }
  ],
  "bytecode": "0x60606040526000602f556101f46030556000603155341561001f57600080fd5b6120508061002e6000396000f3006060604052600436106100f1576000357c0100000000000000000000000000000000000000000000000000000000900463ffffffff168063136dd963146100f65780632346456f146101925780632b91e60f146101fc57806330e1c81b1461024957806335e16683146104de578063566180c414610661578063811f4eb9146106d0578063949d225d146107665780639ace38c21461078f578063a26fd46314610833578063b60238f61461085c578063d4e2e5791461095e578063e77e47e4146109cf578063ee4ae2c9146109f8578063f2a40db814610a2f578063f6d713dd14610cd2578063f9e84d7714610cfb575b600080fd5b341561010157600080fd5b6101176004808035906020019091905050610db3565b6040518080602001828103825283818151815260200191508051906020019080838360005b8381101561015757808201518184015260208101905061013c565b50505050905090810190601f1680156101845780820380516001836020036101000a031916815260200191505b509250505060405180910390f35b341561019d57600080fd5b6101fa600480803573ffffffffffffffffffffffffffffffffffffffff1690602001909190803573ffffffffffffffffffffffffffffffffffffffff16906020019091908035906020019091908035906020019091905050610e6f565b005b341561020757600080fd5b610233600480803573ffffffffffffffffffffffffffffffffffffffff16906020019091905050611032565b6040518082815260200191505060405180910390f35b341561025457600080fd5b61025c611053565b604051808a81526020018060200189815260200188815260200187815260200180602001806020018673ffffffffffffffffffffffffffffffffffffffff1673ffffffffffffffffffffffffffffffffffffffff1681526020018060200185810385528d81815460018160011615610100020316600290048152602001915080546001816001161561010002031660029004801561033b5780601f106103105761010080835404028352916020019161033b565b820191906000526020600020905b81548152906001019060200180831161031e57829003601f168201915b50508581038452898181546001816001161561010002031660029004815260200191508054600181600116156101000203166002900480156103be5780601f10610393576101008083540402835291602001916103be565b820191906000526020600020905b8154815290600101906020018083116103a157829003601f168201915b50508581038352888181546001816001161561010002031660029004815260200191508054600181600116156101000203166002900480156104415780601f1061041657610100808354040283529160200191610441565b820191906000526020600020905b81548152906001019060200180831161042457829003601f168201915b50508581038252868181546001816001161561010002031660029004815260200191508054600181600116156101000203166002900480156104c45780601f10610499576101008083540402835291602001916104c4565b820191906000526020600020905b8154815290600101906020018083116104a757829003601f168201915b50509d505050505050505050505050505060405180910390f35b34156104e957600080fd5b610539600480803590602001908201803590602001908080601f016020809104026020016040519081016040528093929190818152602001838380828437820191505050505050919050506110ab565b6040518080602001868152602001858152602001806020018473ffffffffffffffffffffffffffffffffffffffff1673ffffffffffffffffffffffffffffffffffffffff168152602001838103835288818151815260200191508051906020019080838360005b838110156105bb5780820151818401526020810190506105a0565b50505050905090810190601f1680156105e85780820380516001836020036101000a031916815260200191505b50838103825285818151815260200191508051906020019080838360005b83811015610621578082015181840152602081019050610606565b50505050905090810190601f16801561064e5780820380516001836020036101000a031916815260200191505b5097505050505050505060405180910390f35b341561066c57600080fd5b6106ce600480803590602001908201803590602001908080601f016020809104026020016040519081016040528093929190818152602001838380828437820191505050505050919080359060200190919080359060200190919050506113ef565b005b34156106db57600080fd5b6106e3611447565b604051808573ffffffffffffffffffffffffffffffffffffffff1673ffffffffffffffffffffffffffffffffffffffff1681526020018473ffffffffffffffffffffffffffffffffffffffff1673ffffffffffffffffffffffffffffffffffffffff16815260200183815260200182815260200194505050505060405180910390f35b341561077157600080fd5b6107796114a5565b6040518082815260200191505060405180910390f35b341561079a57600080fd5b6107b060048080359060200190919050506114ab565b604051808573ffffffffffffffffffffffffffffffffffffffff1673ffffffffffffffffffffffffffffffffffffffff1681526020018473ffffffffffffffffffffffffffffffffffffffff1673ffffffffffffffffffffffffffffffffffffffff16815260200183815260200182815260200194505050505060405180910390f35b341561083e57600080fd5b61084661152a565b6040518082815260200191505060405180910390f35b341561086757600080fd5b61095c600480803590602001908201803590602001908080601f0160208091040260200160405190810160405280939291908181526020018383808284378201915050505050509190803590602001908201803590602001908080601f0160208091040260200160405190810160405280939291908181526020018383808284378201915050505050509190803590602001908201803590602001908080601f0160208091040260200160405190810160405280939291908181526020018383808284378201915050505050509190803573ffffffffffffffffffffffffffffffffffffffff16906020019091905050611534565b005b341561096957600080fd5b6109b9600480803590602001908201803590602001908080601f0160208091040260200160405190810160405280939291908181526020018383808284378201915050505050509190505061183c565b6040518082815260200191505060405180910390f35b34156109da57600080fd5b6109e2611987565b6040518082815260200191505060405180910390f35b610a2d600480803573ffffffffffffffffffffffffffffffffffffffff1690602001909190803590602001909190505061198d565b005b3415610a3a57600080fd5b610a5060048080359060200190919050506119d1565b604051808a81526020018060200189815260200188815260200187815260200180602001806020018673ffffffffffffffffffffffffffffffffffffffff1673ffffffffffffffffffffffffffffffffffffffff1681526020018060200185810385528d818154600181600116156101000203166002900481526020019150805460018160011615610100020316600290048015610b2f5780601f10610b0457610100808354040283529160200191610b2f565b820191906000526020600020905b815481529060010190602001808311610b1257829003601f168201915b5050858103845289818154600181600116156101000203166002900481526020019150805460018160011615610100020316600290048015610bb25780601f10610b8757610100808354040283529160200191610bb2565b820191906000526020600020905b815481529060010190602001808311610b9557829003601f168201915b5050858103835288818154600181600116156101000203166002900481526020019150805460018160011615610100020316600290048015610c355780601f10610c0a57610100808354040283529160200191610c35565b820191906000526020600020905b815481529060010190602001808311610c1857829003601f168201915b5050858103825286818154600181600116156101000203166002900481526020019150805460018160011615610100020316600290048015610cb85780601f10610c8d57610100808354040283529160200191610cb8565b820191906000526020600020905b815481529060010190602001808311610c9b57829003601f168201915b50509d505050505050505050505050505060405180910390f35b3415610cdd57600080fd5b610ce5611a4a565b6040518082815260200191505060405180910390f35b3415610d0657600080fd5b610d99600480803590602001908201803590602001908080601f0160208091040260200160405190810160405280939291908181526020018383808284378201915050505050509190803590602001908201803590602001908080601f01602080910402602001604051908101604052809392919081815260200183838082843782019150505050505091905050611a50565b604051808215151515815260200191505060405180910390f35b602d81815481101515610dc257fe5b90600052602060002090016000915090508054600181600116156101000203166002900480601f016020809104026020016040519081016040528092919081815260200182805460018160011615610100020316600290048015610e675780601f10610e3c57610100808354040283529160200191610e67565b820191906000526020600020905b815481529060010190602001808311610e4a57829003601f168201915b505050505081565b83600160000160006101000a81548173ffffffffffffffffffffffffffffffffffffffff021916908373ffffffffffffffffffffffffffffffffffffffff160217905550826001800160006101000a81548173ffffffffffffffffffffffffffffffffffffffff021916908373ffffffffffffffffffffffffffffffffffffffff160217905550816001600201819055508060016003018190555060008054806001018281610f1e9190611baa565b91600052602060002090600402016000600190919091506000820160009054906101000a900473ffffffffffffffffffffffffffffffffffffffff168160000160006101000a81548173ffffffffffffffffffffffffffffffffffffffff021916908373ffffffffffffffffffffffffffffffffffffffff1602179055506001820160009054906101000a900473ffffffffffffffffffffffffffffffffffffffff168160010160006101000a81548173ffffffffffffffffffffffffffffffffffffffff021916908373ffffffffffffffffffffffffffffffffffffffff160217905550600282015481600201556003820154816003015550505060316000815480929190600101919050555050505050565b60008173ffffffffffffffffffffffffffffffffffffffff16319050919050565b60058060000154908060010190806002015490806003015490806004015490806023019080602401908060250160009054906101000a900473ffffffffffffffffffffffffffffffffffffffff169080602601905089565b6110b3611bdc565b6000806110be611bdc565b60008060009050600090505b602f548110156113e457866040518082805190602001908083835b60208310151561110a57805182526020820191506020810190506020830392506110e5565b6001836020036101000a038019825116818451168082178552505050505050905001915050604051809103902060001916602e8281548110151561114a57fe5b906000526020600020906027020160230160405180828054600181600116156101000203166002900480156111b65780601f106111945761010080835404028352918201916111b6565b820191906000526020600020905b8154815290600101906020018083116111a2575b505091505060405180910390206000191614156113d757602e818154811015156111dc57fe5b9060005260206000209060270201600101602e828154811015156111fc57fe5b906000526020600020906027020160020154602e8381548110151561121d57fe5b906000526020600020906027020160030154602e8481548110151561123e57fe5b9060005260206000209060270201602601602e8581548110151561125e57fe5b906000526020600020906027020160250160009054906101000a900473ffffffffffffffffffffffffffffffffffffffff16848054600181600116156101000203166002900480601f0160208091040260200160405190810160405280929190818152602001828054600181600116156101000203166002900480156113255780601f106112fa57610100808354040283529160200191611325565b820191906000526020600020905b81548152906001019060200180831161130857829003601f168201915b50505050509450818054600181600116156101000203166002900480601f0160208091040260200160405190810160405280929190818152602001828054600181600116156101000203166002900480156113c15780601f10611396576101008083540402835291602001916113c1565b820191906000526020600020905b8154815290600101906020018083116113a457829003601f168201915b50505050509150955095509550955095506113e5565b80806001019150506110ca565b5b5091939590929450565b60306000815480929190600101919050556005600001819055508260056001019080519060200190611422929190611bf0565b5081600560020181905550806005600301819055506000600560040181905550505050565b60018060000160009054906101000a900473ffffffffffffffffffffffffffffffffffffffff16908060010160009054906101000a900473ffffffffffffffffffffffffffffffffffffffff16908060020154908060030154905084565b602f5481565b6000818154811015156114ba57fe5b90600052602060002090600402016000915090508060000160009054906101000a900473ffffffffffffffffffffffffffffffffffffffff16908060010160009054906101000a900473ffffffffffffffffffffffffffffffffffffffff16908060020154908060030154905084565b6000602f54905090565b836005602601908051906020019061154d929190611bf0565b508260056023019080519060200190611567929190611bf0565b508160056024019080519060200190611581929190611bf0565b5080600560250160006101000a81548173ffffffffffffffffffffffffffffffffffffffff021916908373ffffffffffffffffffffffffffffffffffffffff160217905550602d80548060010182816115da9190611c70565b916000526020600020900160008590919091509080519060200190611600929190611bf0565b5050602e80548060010182816116169190611c9c565b9160005260206000209060270201600060059091909150600082015481600001556001820181600101908054600181600116156101000203166002900461165e929190611cce565b50600282015481600201556003820154816003015560048201548160040155600582018160050190600a611693929190611d55565b50600f820181600f0190600a6116aa929190611d92565b50601982018160190190600a6116c1929190611d92565b50602382018160230190805460018160011615610100020316600290046116e9929190611cce565b5060248201816024019080546001816001161561010002031660029004611711929190611cce565b506025820160009054906101000a900473ffffffffffffffffffffffffffffffffffffffff168160250160006101000a81548173ffffffffffffffffffffffffffffffffffffffff021916908373ffffffffffffffffffffffffffffffffffffffff160217905550602682018160260190805460018160011615610100020316600290046117a0929190611cce565b5050505081602c846040518082805190602001908083835b6020831015156117dd57805182526020820191506020810190506020830392506117b8565b6001836020036101000a03801982511681845116808217855250505050505090500191505090815260200160405180910390209080519060200190611823929190611bf0565b50602f6000815480929190600101919050555050505050565b60008060009050600090505b602f5481101561198057826040518082805190602001908083835b6020831015156118885780518252602082019150602081019050602083039250611863565b6001836020036101000a038019825116818451168082178552505050505050905001915050604051809103902060001916602e828154811015156118c857fe5b906000526020600020906027020160230160405180828054600181600116156101000203166002900480156119345780601f10611912576101008083540402835291820191611934565b820191906000526020600020905b815481529060010190602001808311611920575b5050915050604051809103902060001916141561197357602e8181548110151561195a57fe5b9060005260206000209060270201600001549150611981565b8080600101915050611848565b5b50919050565b60315481565b8173ffffffffffffffffffffffffffffffffffffffff166108fc829081150290604051600060405180830381858888f1935050505015156119cd57600080fd5b5050565b602e818154811015156119e057fe5b90600052602060002090602702016000915090508060000154908060010190806002015490806003015490806004015490806023019080602401908060250160009054906101000a900473ffffffffffffffffffffffffffffffffffffffff169080602601905089565b60305481565b6000816040518082805190602001908083835b602083101515611a885780518252602082019150602081019050602083039250611a63565b6001836020036101000a038019825116818451168082178552505050505050905001915050604051809103902060001916602c846040518082805190602001908083835b602083101515611af15780518252602082019150602081019050602083039250611acc565b6001836020036101000a03801982511681845116808217855250505050505090500191505090815260200160405180910390206040518082805460018160011615610100020316600290048015611b7f5780601f10611b5d576101008083540402835291820191611b7f565b820191906000526020600020905b815481529060010190602001808311611b6b575b50509150506040518091039020600019161415611b9f5760019050611ba4565b600090505b92915050565b815481835581811511611bd757600402816004028360005260206000209182019101611bd69190611dcf565b5b505050565b602060405190810160405280600081525090565b828054600181600116156101000203166002900490600052602060002090601f016020900481019282601f10611c3157805160ff1916838001178555611c5f565b82800160010185558215611c5f579182015b82811115611c5e578251825591602001919060010190611c43565b5b509050611c6c9190611e4c565b5090565b815481835581811511611c9757818360005260206000209182019101611c969190611e71565b5b505050565b815481835581811511611cc957602702816027028360005260206000209182019101611cc89190611e9d565b5b505050565b828054600181600116156101000203166002900490600052602060002090601f016020900481019282601f10611d075780548555611d44565b82800160010185558215611d4457600052602060002091601f016020900482015b82811115611d43578254825591600101919060010190611d28565b5b509050611d519190611e4c565b5090565b82600a8101928215611d81579182015b82811115611d80578254825591600101919060010190611d65565b5b509050611d8e9190611f73565b5090565b82600a8101928215611dbe579182015b82811115611dbd578254825591600101919060010190611da2565b5b509050611dcb9190611e4c565b5090565b611e4991905b80821115611e4557600080820160006101000a81549073ffffffffffffffffffffffffffffffffffffffff02191690556001820160006101000a81549073ffffffffffffffffffffffffffffffffffffffff02191690556002820160009055600382016000905550600401611dd5565b5090565b90565b611e6e91905b80821115611e6a576000816000905550600101611e52565b5090565b90565b611e9a91905b80821115611e965760008181611e8d9190611fb6565b50600101611e77565b5090565b90565b611f7091905b80821115611f6c57600080820160009055600182016000611ec49190611fb6565b600282016000905560038201600090556004820160009055600582016000611eec9190611ffe565b600f82016000611efc9190612011565b601982016000611f0c9190612011565b602382016000611f1c9190611fb6565b602482016000611f2c9190611fb6565b6025820160006101000a81549073ffffffffffffffffffffffffffffffffffffffff0219169055602682016000611f639190611fb6565b50602701611ea3565b5090565b90565b611fb391905b80821115611faf57600081816101000a81549073ffffffffffffffffffffffffffffffffffffffff021916905550600101611f79565b5090565b90565b50805460018160011615610100020316600290046000825580601f10611fdc5750611ffb565b601f016020900490600052602060002090810190611ffa9190611e4c565b5b50565b5080600a019061200e9190611e4c565b50565b5080600a01906120219190611e4c565b505600a165627a7a723058200df1057423aebbb135fdc704b70d60904afe4039c2645b4851f9291f245bb5690029",
  "source": "pragma solidity ^0.4.19;\r\n\r\ncontract agentsregister\r\n{\r\n    \r\n    struct user_info\r\n    {\r\n        uint uid;\r\n        string name;\r\n        int latitude;\r\n        int longitude;\r\n        uint no_requestsmade;\r\n        address[10] to;\r\n        uint[10] amt;\r\n        uint[10] duration; \r\n        string uname;\r\n        string pass;\r\n        address add;\r\n        string contact;\r\n    } \r\n\r\n    struct trans\r\n    {\r\n    address from;\r\n    address to;\r\n    uint amount;\r\n    uint duration;\r\n    }\r\n    \r\n    trans[] public transactions;\r\n    trans public temp_trans;\r\n    user_info public user_var; \r\n    mapping(string => string) login_info;\r\n    string[] public usernames;\r\n    user_info[] public accounts;\r\n    \r\n\r\n    uint256 public size=0;\r\n    uint256 public serial=500;\r\n    uint256 public trans_count=0;\r\n\r\n    function makereq(address from2,address to2, uint amt2, uint duration2) public\r\n    {\r\n       temp_trans.from=from2;\r\n       temp_trans.to=to2;\r\n      temp_trans.amount=amt2;\r\n      temp_trans.duration=duration2;\r\n      transactions.push(temp_trans);\r\n       trans_count++;\r\n\r\n\r\n       /* accounts[i].r[accounts[i].no_requestsmade].to=to2;\r\n        accounts[i].r[accounts[i].no_requestsmade].amt=amt2;\r\n        accounts[i].r[accounts[i].no_requestsmade].duration=duration2;\r\n        accounts[i].no_requestsmade++;*/\r\n    }\r\n\r\n    function sendMoney(address to_addr,uint amt) public payable{\r\n      to_addr.transfer(amt);\r\n    }\r\n    function getBalanceAddr(address add) public view returns (uint256) {\r\n        return add.balance;\r\n    }\r\n\r\n    function newacc(string name2, int latitude2,int longitude2) public \r\n    {\r\n        user_var.uid=serial++;\r\n        user_var.name=name2;\r\n        user_var.latitude=latitude2;\r\n        user_var.longitude=longitude2;\r\n        user_var.no_requestsmade=0;\r\n    }\r\n    \r\n\r\n    function newacc_2(string contact2,string uname2,string pass2,address add2) public\r\n     {       \r\n        \r\n        user_var.contact=contact2;\r\n        user_var.uname=uname2;\r\n        user_var.pass=pass2;\r\n        user_var.add=add2;\r\n        \r\n        usernames.push(uname2);\r\n        accounts.push(user_var);\r\n        login_info[uname2]=pass2;\r\n        size++;\r\n\r\n    }\r\n\r\n    function check_account(string uname2, string pass2) public view returns (bool)\r\n    {\r\n        if(keccak256(login_info[uname2])==keccak256(pass2)) //account exists\r\n            {\r\n                    return true;\r\n            }\r\n\r\n            return false;\r\n    }\r\n\r\n     function get_details_name(string uname2) public view returns (string name2, int latitude2,int longitude2,string contact2,address add2)\r\n    {\r\n        uint i=0;\r\n\r\n        for(i=0;i<size;i++)\r\n        {\r\n            if(keccak256(accounts[i].uname)==keccak256(uname2))\r\n            {\r\n                return (accounts[i].name, accounts[i].latitude,accounts[i].longitude,accounts[i].contact,accounts[i].add);\r\n            }\r\n        }\r\n    }\r\n\r\n    function get_id(string uname2) public view returns (uint id)\r\n    {\r\n        uint i=0;\r\n\r\n        for(i=0;i<size;i++)\r\n        {\r\n            if(keccak256(accounts[i].uname)==keccak256(uname2))\r\n            {\r\n                return accounts[i].uid;\r\n            }\r\n        }\r\n    }\r\n\r\n    function getaccountlength() public view returns (uint256)\r\n    {\r\n        return size;\r\n    }\r\n\r\n    \r\n    \r\n}",
  "sourcePath": "C:\\Users\\Thamizh Nambi\\Desktop\\SIH Projects\\mul1\\contracts\\agentsregister.sol",
  "compiler": {
    "name": "solc",
    "version": "0.4.19+commit.c4cbbb05.Emscripten.clang"
  },
  "schemaVersion": "2.0.0",
  "updatedAt": "2018-03-31T09:06:51.725Z"
}