{
  "contractName": "artisansregister",
  "abi": [
    {
      "constant": true,
      "inputs": [
        {
          "name": "",
          "type": "uint256"
        }
      ],
      "name": "usernames",
      "outputs": [
        {
          "name": "",
          "type": "string"
        }
      ],
      "payable": false,
      "stateMutability": "view",
      "type": "function"
    },
    {
      "constant": true,
      "inputs": [],
      "name": "user_var",
      "outputs": [
        {
          "name": "uid",
          "type": "uint256"
        },
        {
          "name": "name",
          "type": "string"
        },
        {
          "name": "latitude",
          "type": "int256"
        },
        {
          "name": "longitude",
          "type": "int256"
        },
        {
          "name": "no_skills",
          "type": "uint256"
        },
        {
          "name": "no_requests",
          "type": "uint256"
        },
        {
          "name": "uname",
          "type": "string"
        },
        {
          "name": "pass",
          "type": "string"
        },
        {
          "name": "add",
          "type": "address"
        },
        {
          "name": "exp",
          "type": "uint256"
        },
        {
          "name": "contact",
          "type": "string"
        }
      ],
      "payable": false,
      "stateMutability": "view",
      "type": "function"
    },
    {
      "constant": true,
      "inputs": [],
      "name": "temp_trans",
      "outputs": [
        {
          "name": "from",
          "type": "address"
        },
        {
          "name": "to",
          "type": "address"
        },
        {
          "name": "amount",
          "type": "uint256"
        },
        {
          "name": "duration",
          "type": "uint256"
        }
      ],
      "payable": false,
      "stateMutability": "view",
      "type": "function"
    },
    {
      "constant": true,
      "inputs": [],
      "name": "size",
      "outputs": [
        {
          "name": "",
          "type": "uint256"
        }
      ],
      "payable": false,
      "stateMutability": "view",
      "type": "function"
    },
    {
      "constant": true,
      "inputs": [
        {
          "name": "",
          "type": "uint256"
        }
      ],
      "name": "transactions",
      "outputs": [
        {
          "name": "from",
          "type": "address"
        },
        {
          "name": "to",
          "type": "address"
        },
        {
          "name": "amount",
          "type": "uint256"
        },
        {
          "name": "duration",
          "type": "uint256"
        }
      ],
      "payable": false,
      "stateMutability": "view",
      "type": "function"
    },
    {
      "constant": true,
      "inputs": [],
      "name": "trans_count",
      "outputs": [
        {
          "name": "",
          "type": "uint256"
        }
      ],
      "payable": false,
      "stateMutability": "view",
      "type": "function"
    },
    {
      "constant": true,
      "inputs": [
        {
          "name": "",
          "type": "uint256"
        }
      ],
      "name": "accounts",
      "outputs": [
        {
          "name": "uid",
          "type": "uint256"
        },
        {
          "name": "name",
          "type": "string"
        },
        {
          "name": "latitude",
          "type": "int256"
        },
        {
          "name": "longitude",
          "type": "int256"
        },
        {
          "name": "no_skills",
          "type": "uint256"
        },
        {
          "name": "no_requests",
          "type": "uint256"
        },
        {
          "name": "uname",
          "type": "string"
        },
        {
          "name": "pass",
          "type": "string"
        },
        {
          "name": "add",
          "type": "address"
        },
        {
          "name": "exp",
          "type": "uint256"
        },
        {
          "name": "contact",
          "type": "string"
        }
      ],
      "payable": false,
      "stateMutability": "view",
      "type": "function"
    },
    {
      "constant": true,
      "inputs": [],
      "name": "serial",
      "outputs": [
        {
          "name": "",
          "type": "uint256"
        }
      ],
      "payable": false,
      "stateMutability": "view",
      "type": "function"
    },
    {
      "constant": true,
      "inputs": [
        {
          "name": "uname2",
          "type": "string"
        }
      ],
      "name": "get_counttrans",
      "outputs": [
        {
          "name": "",
          "type": "uint256"
        },
        {
          "name": "",
          "type": "address"
        }
      ],
      "payable": false,
      "stateMutability": "view",
      "type": "function"
    },
    {
      "constant": true,
      "inputs": [
        {
          "name": "index",
          "type": "uint256"
        },
        {
          "name": "to2",
          "type": "address"
        }
      ],
      "name": "display_trans",
      "outputs": [
        {
          "name": "from2",
          "type": "address"
        },
        {
          "name": "amount2",
          "type": "uint256"
        },
        {
          "name": "duration2",
          "type": "uint256"
        }
      ],
      "payable": false,
      "stateMutability": "view",
      "type": "function"
    },
    {
      "constant": false,
      "inputs": [
        {
          "name": "to2",
          "type": "address"
        },
        {
          "name": "from2",
          "type": "address"
        },
        {
          "name": "amt2",
          "type": "uint256"
        },
        {
          "name": "duration2",
          "type": "uint256"
        }
      ],
      "name": "getreq",
      "outputs": [],
      "payable": false,
      "stateMutability": "nonpayable",
      "type": "function"
    },
    {
      "constant": false,
      "inputs": [
        {
          "name": "name2",
          "type": "string"
        },
        {
          "name": "latitude2",
          "type": "int256"
        },
        {
          "name": "longitude2",
          "type": "int256"
        },
        {
          "name": "skills2",
          "type": "string"
        }
      ],
      "name": "newacc",
      "outputs": [],
      "payable": false,
      "stateMutability": "nonpayable",
      "type": "function"
    },
    {
      "constant": false,
      "inputs": [
        {
          "name": "exp2",
          "type": "uint256"
        },
        {
          "name": "contact2",
          "type": "string"
        },
        {
          "name": "uname2",
          "type": "string"
        },
        {
          "name": "pass2",
          "type": "string"
        },
        {
          "name": "add2",
          "type": "address"
        }
      ],
      "name": "newacc_2",
      "outputs": [],
      "payable": false,
      "stateMutability": "nonpayable",
      "type": "function"
    },
    {
      "constant": true,
      "inputs": [
        {
          "name": "uname2",
          "type": "string"
        },
        {
          "name": "pass2",
          "type": "string"
        }
      ],
      "name": "check_account",
      "outputs": [
        {
          "name": "",
          "type": "bool"
        }
      ],
      "payable": false,
      "stateMutability": "view",
      "type": "function"
    },
    {
      "constant": true,
      "inputs": [
        {
          "name": "uname2",
          "type": "string"
        }
      ],
      "name": "get_details_name",
      "outputs": [
        {
          "name": "name2",
          "type": "string"
        },
        {
          "name": "latitude2",
          "type": "int256"
        },
        {
          "name": "longitude2",
          "type": "int256"
        },
        {
          "name": "skills2",
          "type": "string"
        },
        {
          "name": "exp2",
          "type": "uint256"
        },
        {
          "name": "contact2",
          "type": "string"
        },
        {
          "name": "add2",
          "type": "address"
        }
      ],
      "payable": false,
      "stateMutability": "view",
      "type": "function"
    },
    {
      "constant": true,
      "inputs": [
        {
          "name": "uid3",
          "type": "uint256"
        }
      ],
      "name": "get_details_id",
      "outputs": [
        {
          "name": "name2",
          "type": "string"
        },
        {
          "name": "latitude2",
          "type": "int256"
        },
        {
          "name": "longitude2",
          "type": "int256"
        },
        {
          "name": "skills2",
          "type": "string"
        },
        {
          "name": "exp2",
          "type": "uint256"
        },
        {
          "name": "contact2",
          "type": "string"
        },
        {
          "name": "add2",
          "type": "address"
        }
      ],
      "payable": false,
      "stateMutability": "view",
      "type": "function"
    },
    {
      "constant": true,
      "inputs": [],
      "name": "getaccountlength",
      "outputs": [
        {
          "name": "",
          "type": "uint256"
        }
      ],
      "payable": false,
      "stateMutability": "view",
      "type": "function"
    },
    {
      "constant": true,
      "inputs": [
        {
          "name": "uname2",
          "type": "string"
        }
      ],
      "name": "get_id",
      "outputs": [
        {
          "name": "id",
          "type": "uint256"
        }
      ],
      "payable": false,
      "stateMutability": "view",
      "type": "function"
    }
  ],
  "bytecode": "0x60606040526000603b556064603c556000603d55341561001e57600080fd5b612d108061002d6000396000f3006060604052600436106100fc576000357c0100000000000000000000000000000000000000000000000000000000900463ffffffff168063106be61014610101578063136dd9631461020c5780631b0899cf146102a85780631cd49ce4146103385780632a340cf6146104f457806330e1c81b146105a657806335e1668314610849578063811f4eb914610a3f578063949d225d14610ad55780639ace38c214610afe578063a26fd46314610ba2578063b06cde6214610bcb578063d4e2e57914610c6f578063e77e47e414610ce0578063eccd662414610d09578063f2a40db814610d73578063f6d713dd14611024578063f9e84d771461104d575b600080fd5b341561010c57600080fd5b61020a600480803590602001909190803590602001908201803590602001908080601f0160208091040260200160405190810160405280939291908181526020018383808284378201915050505050509190803590602001908201803590602001908080601f0160208091040260200160405190810160405280939291908181526020018383808284378201915050505050509190803590602001908201803590602001908080601f0160208091040260200160405190810160405280939291908181526020018383808284378201915050505050509190803573ffffffffffffffffffffffffffffffffffffffff16906020019091905050611105565b005b341561021757600080fd5b61022d600480803590602001909190505061144e565b6040518080602001828103825283818151815260200191508051906020019080838360005b8381101561026d578082015181840152602081019050610252565b50505050905090810190601f16801561029a5780820380516001836020036101000a031916815260200191505b509250505060405180910390f35b34156102b357600080fd5b6102e8600480803590602001909190803573ffffffffffffffffffffffffffffffffffffffff1690602001909190505061150a565b604051808473ffffffffffffffffffffffffffffffffffffffff1673ffffffffffffffffffffffffffffffffffffffff168152602001838152602001828152602001935050505060405180910390f35b341561034357600080fd5b61035960048080359060200190919050506116ce565b604051808060200188815260200187815260200180602001868152602001806020018573ffffffffffffffffffffffffffffffffffffffff1673ffffffffffffffffffffffffffffffffffffffff16815260200184810384528b818151815260200191508051906020019080838360005b838110156103e55780820151818401526020810190506103ca565b50505050905090810190601f1680156104125780820380516001836020036101000a031916815260200191505b50848103835288818151815260200191508051906020019080838360005b8381101561044b578082015181840152602081019050610430565b50505050905090810190601f1680156104785780820380516001836020036101000a031916815260200191505b50848103825286818151815260200191508051906020019080838360005b838110156104b1578082015181840152602081019050610496565b50505050905090810190601f1680156104de5780820380516001836020036101000a031916815260200191505b509a505050505050505050505060405180910390f35b34156104ff57600080fd5b6105a4600480803590602001908201803590602001908080601f0160208091040260200160405190810160405280939291908181526020018383808284378201915050505050509190803590602001909190803590602001909190803590602001908201803590602001908080601f01602080910402602001604051908101604052809392919081815260200183838082843782019150505050505091905050611a42565b005b34156105b157600080fd5b6105b9611ac3565b604051808c8152602001806020018b81526020018a815260200189815260200188815260200180602001806020018773ffffffffffffffffffffffffffffffffffffffff1673ffffffffffffffffffffffffffffffffffffffff1681526020018681526020018060200185810385528f8181546001816001161561010002031660029004815260200191508054600181600116156101000203166002900480156106a45780601f10610679576101008083540402835291602001916106a4565b820191906000526020600020905b81548152906001019060200180831161068757829003601f168201915b505085810384528a8181546001816001161561010002031660029004815260200191508054600181600116156101000203166002900480156107275780601f106106fc57610100808354040283529160200191610727565b820191906000526020600020905b81548152906001019060200180831161070a57829003601f168201915b50508581038352898181546001816001161561010002031660029004815260200191508054600181600116156101000203166002900480156107aa5780601f1061077f576101008083540402835291602001916107aa565b820191906000526020600020905b81548152906001019060200180831161078d57829003601f168201915b505085810382528681815460018160011615610100020316600290048152602001915080546001816001161561010002031660029004801561082d5780601f106108025761010080835404028352916020019161082d565b820191906000526020600020905b81548152906001019060200180831161081057829003601f168201915b50509f5050505050505050505050505050505060405180910390f35b341561085457600080fd5b6108a4600480803590602001908201803590602001908080601f01602080910402602001604051908101604052809392919081815260200183838082843782019150505050505091905050611b27565b604051808060200188815260200187815260200180602001868152602001806020018573ffffffffffffffffffffffffffffffffffffffff1673ffffffffffffffffffffffffffffffffffffffff16815260200184810384528b818151815260200191508051906020019080838360005b83811015610930578082015181840152602081019050610915565b50505050905090810190601f16801561095d5780820380516001836020036101000a031916815260200191505b50848103835288818151815260200191508051906020019080838360005b8381101561099657808201518184015260208101905061097b565b50505050905090810190601f1680156109c35780820380516001836020036101000a031916815260200191505b50848103825286818151815260200191508051906020019080838360005b838110156109fc5780820151818401526020810190506109e1565b50505050905090810190601f168015610a295780820380516001836020036101000a031916815260200191505b509a505050505050505050505060405180910390f35b3415610a4a57600080fd5b610a52611f67565b604051808573ffffffffffffffffffffffffffffffffffffffff1673ffffffffffffffffffffffffffffffffffffffff1681526020018473ffffffffffffffffffffffffffffffffffffffff1673ffffffffffffffffffffffffffffffffffffffff16815260200183815260200182815260200194505050505060405180910390f35b3415610ae057600080fd5b610ae8611fc5565b6040518082815260200191505060405180910390f35b3415610b0957600080fd5b610b1f6004808035906020019091905050611fcb565b604051808573ffffffffffffffffffffffffffffffffffffffff1673ffffffffffffffffffffffffffffffffffffffff1681526020018473ffffffffffffffffffffffffffffffffffffffff1673ffffffffffffffffffffffffffffffffffffffff16815260200183815260200182815260200194505050505060405180910390f35b3415610bad57600080fd5b610bb561204a565b6040518082815260200191505060405180910390f35b3415610bd657600080fd5b610c26600480803590602001908201803590602001908080601f01602080910402602001604051908101604052809392919081815260200183838082843782019150505050505091905050612054565b604051808381526020018273ffffffffffffffffffffffffffffffffffffffff1673ffffffffffffffffffffffffffffffffffffffff1681526020019250505060405180910390f35b3415610c7a57600080fd5b610cca600480803590602001908201803590602001908080601f016020809104026020016040519081016040528093929190818152602001838380828437820191505050505050919050506122e3565b6040518082815260200191505060405180910390f35b3415610ceb57600080fd5b610cf361242e565b6040518082815260200191505060405180910390f35b3415610d1457600080fd5b610d71600480803573ffffffffffffffffffffffffffffffffffffffff1690602001909190803573ffffffffffffffffffffffffffffffffffffffff16906020019091908035906020019091908035906020019091905050612434565b005b3415610d7e57600080fd5b610d9460048080359060200190919050506125f7565b604051808c8152602001806020018b81526020018a815260200189815260200188815260200180602001806020018773ffffffffffffffffffffffffffffffffffffffff1673ffffffffffffffffffffffffffffffffffffffff1681526020018681526020018060200185810385528f818154600181600116156101000203166002900481526020019150805460018160011615610100020316600290048015610e7f5780601f10610e5457610100808354040283529160200191610e7f565b820191906000526020600020905b815481529060010190602001808311610e6257829003601f168201915b505085810384528a818154600181600116156101000203166002900481526020019150805460018160011615610100020316600290048015610f025780601f10610ed757610100808354040283529160200191610f02565b820191906000526020600020905b815481529060010190602001808311610ee557829003601f168201915b5050858103835289818154600181600116156101000203166002900481526020019150805460018160011615610100020316600290048015610f855780601f10610f5a57610100808354040283529160200191610f85565b820191906000526020600020905b815481529060010190602001808311610f6857829003601f168201915b50508581038252868181546001816001161561010002031660029004815260200191508054600181600116156101000203166002900480156110085780601f10610fdd57610100808354040283529160200191611008565b820191906000526020600020905b815481529060010190602001808311610feb57829003601f168201915b50509f5050505050505050505050505050505060405180910390f35b341561102f57600080fd5b61103761267c565b6040518082815260200191505060405180910390f35b341561105857600080fd5b6110eb600480803590602001908201803590602001908080601f0160208091040260200160405190810160405280939291908181526020018383808284378201915050505050509190803590602001908201803590602001908080601f01602080910402602001604051908101604052809392919081815260200183838082843782019150505050505091905050612682565b604051808215151515815260200191505060405180910390f35b8460056031018190555083600560320190805190602001906111289291906127dc565b50826005602e0190805190602001906111429291906127dc565b50816005602f01908051906020019061115c9291906127dc565b5080600560300160006101000a81548173ffffffffffffffffffffffffffffffffffffffff021916908373ffffffffffffffffffffffffffffffffffffffff16021790555060006005600f0181905550603980548060010182816111c0919061285c565b9160005260206000209001600085909190915090805190602001906111e69291906127dc565b5050603a80548060010182816111fc9190612888565b916000526020600020906033020160006005909190915060008201548160000155600182018160010190805460018160011615610100020316600290046112449291906128ba565b50600282015481600201556003820154816003015560048201548160040155600582018160050190600a611279929190612941565b50600f82015481600f0155601082018160100190600a61129a92919061299c565b50601a820181601a0190600a6112b19291906129d9565b50602482018160240190600a6112c89291906129d9565b50602e820181602e0190805460018160011615610100020316600290046112f09291906128ba565b50602f820181602f0190805460018160011615610100020316600290046113189291906128ba565b506030820160009054906101000a900473ffffffffffffffffffffffffffffffffffffffff168160300160006101000a81548173ffffffffffffffffffffffffffffffffffffffff021916908373ffffffffffffffffffffffffffffffffffffffff16021790555060318201548160310155603282018160320190805460018160011615610100020316600290046113b19291906128ba565b50505050816038846040518082805190602001908083835b6020831015156113ee57805182526020820191506020810190506020830392506113c9565b6001836020036101000a038019825116818451168082178552505050505050905001915050908152602001604051809103902090805190602001906114349291906127dc565b50603b600081548092919060010191905055505050505050565b60398181548110151561145d57fe5b90600052602060002090016000915090508054600181600116156101000203166002900480601f0160208091040260200160405190810160405280929190818152602001828054600181600116156101000203166002900480156115025780601f106114d757610100808354040283529160200191611502565b820191906000526020600020905b8154815290600101906020018083116114e557829003601f168201915b505050505081565b600080600080600080915060009050600090505b603d548110156116c45785604051808273ffffffffffffffffffffffffffffffffffffffff1673ffffffffffffffffffffffffffffffffffffffff166c0100000000000000000000000002815260140191505060405180910390206000191660008281548110151561158c57fe5b906000526020600020906004020160010160009054906101000a900473ffffffffffffffffffffffffffffffffffffffff16604051808273ffffffffffffffffffffffffffffffffffffffff1673ffffffffffffffffffffffffffffffffffffffff166c0100000000000000000000000002815260140191505060405180910390206000191614156116b757868214156116ae5760008181548110151561162f57fe5b906000526020600020906004020160000160009054906101000a900473ffffffffffffffffffffffffffffffffffffffff1660008281548110151561167057fe5b90600052602060002090600402016002015460008381548110151561169157fe5b9060005260206000209060040201600301549450945094506116c5565b81806001019250505b808060010191505061151e565b5b50509250925092565b6116d6612a16565b6000806116e1612a16565b60006116eb612a16565b6000806000809150899050600091505b603b54821015611a345780603a8381548110151561171557fe5b9060005260206000209060330201600001541415611a2757603a8281548110151561173c57fe5b9060005260206000209060330201600101603a8381548110151561175c57fe5b906000526020600020906033020160020154603a8481548110151561177d57fe5b906000526020600020906033020160030154603a8581548110151561179e57fe5b90600052602060002090603302016005016000600a811015156117bd57fe5b01603a868154811015156117cd57fe5b906000526020600020906033020160310154603a878154811015156117ee57fe5b9060005260206000209060330201603201603a8881548110151561180e57fe5b906000526020600020906033020160300160009054906101000a900473ffffffffffffffffffffffffffffffffffffffff16868054600181600116156101000203166002900480601f0160208091040260200160405190810160405280929190818152602001828054600181600116156101000203166002900480156118d55780601f106118aa576101008083540402835291602001916118d5565b820191906000526020600020905b8154815290600101906020018083116118b857829003601f168201915b50505050509650838054600181600116156101000203166002900480601f0160208091040260200160405190810160405280929190818152602001828054600181600116156101000203166002900480156119715780601f1061194657610100808354040283529160200191611971565b820191906000526020600020905b81548152906001019060200180831161195457829003601f168201915b50505050509350818054600181600116156101000203166002900480601f016020809104026020016040519081016040528092919081815260200182805460018160011615610100020316600290048015611a0d5780601f106119e257610100808354040283529160200191611a0d565b820191906000526020600020905b8154815290600101906020018083116119f057829003601f168201915b505050505091509850985098509850985098509850611a35565b81806001019250506116fb565b5b5050919395979092949650565b603c6000815480929190600101919050556005600001819055508360056001019080519060200190611a759291906127dc565b50826005600201819055508160056003018190555080600580016000600a81101515611a9d57fe5b019080519060200190611ab19291906127dc565b50600160056004018190555050505050565b6005806000015490806001019080600201549080600301549080600401549080600f01549080602e019080602f01908060300160009054906101000a900473ffffffffffffffffffffffffffffffffffffffff16908060310154908060320190508b565b611b2f612a16565b600080611b3a612a16565b6000611b44612a16565b60008060009050600090505b603b54811015611f5a57886040518082805190602001908083835b602083101515611b905780518252602082019150602081019050602083039250611b6b565b6001836020036101000a038019825116818451168082178552505050505050905001915050604051809103902060001916603a82815481101515611bd057fe5b9060005260206000209060330201602e016040518082805460018160011615610100020316600290048015611c3c5780601f10611c1a576101008083540402835291820191611c3c565b820191906000526020600020905b815481529060010190602001808311611c28575b50509150506040518091039020600019161415611f4d57603a81815481101515611c6257fe5b9060005260206000209060330201600101603a82815481101515611c8257fe5b906000526020600020906033020160020154603a83815481101515611ca357fe5b906000526020600020906033020160030154603a84815481101515611cc457fe5b90600052602060002090603302016005016000600a81101515611ce357fe5b01603a85815481101515611cf357fe5b906000526020600020906033020160310154603a86815481101515611d1457fe5b9060005260206000209060330201603201603a87815481101515611d3457fe5b906000526020600020906033020160300160009054906101000a900473ffffffffffffffffffffffffffffffffffffffff16868054600181600116156101000203166002900480601f016020809104026020016040519081016040528092919081815260200182805460018160011615610100020316600290048015611dfb5780601f10611dd057610100808354040283529160200191611dfb565b820191906000526020600020905b815481529060010190602001808311611dde57829003601f168201915b50505050509650838054600181600116156101000203166002900480601f016020809104026020016040519081016040528092919081815260200182805460018160011615610100020316600290048015611e975780601f10611e6c57610100808354040283529160200191611e97565b820191906000526020600020905b815481529060010190602001808311611e7a57829003601f168201915b50505050509350818054600181600116156101000203166002900480601f016020809104026020016040519081016040528092919081815260200182805460018160011615610100020316600290048015611f335780601f10611f0857610100808354040283529160200191611f33565b820191906000526020600020905b815481529060010190602001808311611f1657829003601f168201915b505050505091509750975097509750975097509750611f5b565b8080600101915050611b50565b5b50919395979092949650565b60018060000160009054906101000a900473ffffffffffffffffffffffffffffffffffffffff16908060010160009054906101000a900473ffffffffffffffffffffffffffffffffffffffff16908060020154908060030154905084565b603b5481565b600081815481101515611fda57fe5b90600052602060002090600402016000915090508060000160009054906101000a900473ffffffffffffffffffffffffffffffffffffffff16908060010160009054906101000a900473ffffffffffffffffffffffffffffffffffffffff16908060020154908060030154905084565b6000603b54905090565b600080600080600080925060009150600092505b603b548310156121c057856040518082805190602001908083835b6020831015156120a85780518252602082019150602081019050602083039250612083565b6001836020036101000a038019825116818451168082178552505050505050905001915050604051809103902060001916603a848154811015156120e857fe5b9060005260206000209060330201602e0160405180828054600181600116156101000203166002900480156121545780601f10612132576101008083540402835291820191612154565b820191906000526020600020905b815481529060010190602001808311612140575b505091505060405180910390206000191614156121b357603a8381548110151561217a57fe5b906000526020600020906033020160300160009054906101000a900473ffffffffffffffffffffffffffffffffffffffff1690506121c0565b8280600101935050612068565b600092505b603d548310156122d55780604051808273ffffffffffffffffffffffffffffffffffffffff1673ffffffffffffffffffffffffffffffffffffffff166c0100000000000000000000000002815260140191505060405180910390206000191660008481548110151561223357fe5b906000526020600020906004020160010160009054906101000a900473ffffffffffffffffffffffffffffffffffffffff16604051808273ffffffffffffffffffffffffffffffffffffffff1673ffffffffffffffffffffffffffffffffffffffff166c0100000000000000000000000002815260140191505060405180910390206000191614156122c85781806001019250505b82806001019350506121c5565b818194509450505050915091565b60008060009050600090505b603b5481101561242757826040518082805190602001908083835b60208310151561232f578051825260208201915060208101905060208303925061230a565b6001836020036101000a038019825116818451168082178552505050505050905001915050604051809103902060001916603a8281548110151561236f57fe5b9060005260206000209060330201602e0160405180828054600181600116156101000203166002900480156123db5780601f106123b95761010080835404028352918201916123db565b820191906000526020600020905b8154815290600101906020018083116123c7575b5050915050604051809103902060001916141561241a57603a8181548110151561240157fe5b9060005260206000209060330201600001549150612428565b80806001019150506122ef565b5b50919050565b603d5481565b82600160000160006101000a81548173ffffffffffffffffffffffffffffffffffffffff021916908373ffffffffffffffffffffffffffffffffffffffff160217905550836001800160006101000a81548173ffffffffffffffffffffffffffffffffffffffff021916908373ffffffffffffffffffffffffffffffffffffffff1602179055508160016002018190555080600160030181905550600080548060010182816124e39190612a2a565b91600052602060002090600402016000600190919091506000820160009054906101000a900473ffffffffffffffffffffffffffffffffffffffff168160000160006101000a81548173ffffffffffffffffffffffffffffffffffffffff021916908373ffffffffffffffffffffffffffffffffffffffff1602179055506001820160009054906101000a900473ffffffffffffffffffffffffffffffffffffffff168160010160006101000a81548173ffffffffffffffffffffffffffffffffffffffff021916908373ffffffffffffffffffffffffffffffffffffffff1602179055506002820154816002015560038201548160030155505050603d6000815480929190600101919050555050505050565b603a8181548110151561260657fe5b9060005260206000209060330201600091509050806000015490806001019080600201549080600301549080600401549080600f01549080602e019080602f01908060300160009054906101000a900473ffffffffffffffffffffffffffffffffffffffff16908060310154908060320190508b565b603c5481565b6000816040518082805190602001908083835b6020831015156126ba5780518252602082019150602081019050602083039250612695565b6001836020036101000a0380198251168184511680821785525050505050509050019150506040518091039020600019166038846040518082805190602001908083835b60208310151561272357805182526020820191506020810190506020830392506126fe565b6001836020036101000a038019825116818451168082178552505050505050905001915050908152602001604051809103902060405180828054600181600116156101000203166002900480156127b15780601f1061278f5761010080835404028352918201916127b1565b820191906000526020600020905b81548152906001019060200180831161279d575b505091505060405180910390206000191614156127d157600190506127d6565b600090505b92915050565b828054600181600116156101000203166002900490600052602060002090601f016020900481019282601f1061281d57805160ff191683800117855561284b565b8280016001018555821561284b579182015b8281111561284a57825182559160200191906001019061282f565b5b5090506128589190612a5c565b5090565b815481835581811511612883578183600052602060002091820191016128829190612a81565b5b505050565b8154818355818115116128b5576033028160330283600052602060002091820191016128b49190612aad565b5b505050565b828054600181600116156101000203166002900490600052602060002090601f016020900481019282601f106128f35780548555612930565b8280016001018555821561293057600052602060002091601f016020900482015b8281111561292f578254825591600101919060010190612914565b5b50905061293d9190612a5c565b5090565b82600a810192821561298b579182015b8281111561298a578282908054600181600116156101000203166002900461297a9291906128ba565b5091600101919060010190612951565b5b5090506129989190612a81565b5090565b82600a81019282156129c8579182015b828111156129c75782548255916001019190600101906129ac565b5b5090506129d59190612ba3565b5090565b82600a8101928215612a05579182015b82811115612a045782548255916001019190600101906129e9565b5b509050612a129190612a5c565b5090565b602060405190810160405280600081525090565b815481835581811511612a5757600402816004028360005260206000209182019101612a569190612be6565b5b505050565b612a7e91905b80821115612a7a576000816000905550600101612a62565b5090565b90565b612aaa91905b80821115612aa65760008181612a9d9190612c63565b50600101612a87565b5090565b90565b612ba091905b80821115612b9c57600080820160009055600182016000612ad49190612c63565b600282016000905560038201600090556004820160009055600582016000612afc9190612cab565b600f820160009055601082016000612b149190612cbe565b601a82016000612b249190612cd1565b602482016000612b349190612cd1565b602e82016000612b449190612c63565b602f82016000612b549190612c63565b6030820160006101000a81549073ffffffffffffffffffffffffffffffffffffffff02191690556031820160009055603282016000612b939190612c63565b50603301612ab3565b5090565b90565b612be391905b80821115612bdf57600081816101000a81549073ffffffffffffffffffffffffffffffffffffffff021916905550600101612ba9565b5090565b90565b612c6091905b80821115612c5c57600080820160006101000a81549073ffffffffffffffffffffffffffffffffffffffff02191690556001820160006101000a81549073ffffffffffffffffffffffffffffffffffffffff02191690556002820160009055600382016000905550600401612bec565b5090565b90565b50805460018160011615610100020316600290046000825580601f10612c895750612ca8565b601f016020900490600052602060002090810190612ca79190612a5c565b5b50565b5080600a0190612cbb9190612a81565b50565b5080600a0190612cce9190612a5c565b50565b5080600a0190612ce19190612a5c565b505600a165627a7a72305820a029f1c3e1b901e067069493ed0b903fd531c0eb386aaedf3d9d060a270077a50029",
  "source": "pragma solidity ^0.4.19;\r\n\r\ncontract artisansregister\r\n{\r\n    \r\n    struct user_info\r\n    {\r\n        uint uid;\r\n        string name;\r\n        int latitude;\r\n        int longitude;\r\n        uint no_skills;\r\n        string[10] skills;\r\n        uint no_requests;\r\n        address[10] to;\r\n        uint[10] amt;\r\n        uint[10] duration; \r\n        \r\n        string uname;\r\n        string pass;\r\n        address add;\r\n        uint exp;\r\n        string contact;\r\n    } \r\n    \r\n    struct trans\r\n    {\r\n    address from;\r\n    address to;\r\n    uint amount;\r\n    uint duration;\r\n    }\r\n    \r\n    trans[] public transactions;\r\n    trans public temp_trans;\r\n    \r\n    \r\n    user_info public user_var; \r\n    mapping(string => string) login_info;\r\n    string[] public usernames;\r\n    user_info[] public accounts;\r\n\r\n    uint256 public size=0;\r\n    uint256 public serial=100;\r\n    uint256 public trans_count=0;\r\n\r\n\r\n    function get_counttrans(string uname2) public view returns(uint,address)\r\n    {\r\n        uint i=0;\r\n        uint result=0;\r\n        address to2;\r\n        for(i=0;i<size;i++)\r\n        {\r\n            if(keccak256(accounts[i].uname)==keccak256(uname2))\r\n            {\r\n                to2=accounts[i].add;\r\n                break;\r\n            }\r\n        }\r\n\r\n        for(i=0;i<trans_count;i++)\r\n        {\r\n            if(keccak256(transactions[i].to)==keccak256(to2))\r\n            {\r\n                result++;\r\n            }\r\n        }\r\n\r\n        return (result,to2);\r\n    }\r\n\r\n\r\n    function display_trans(uint index,address to2) public view  returns(address from2, uint amount2, uint duration2)\r\n    {\r\n\r\n        uint count=0;\r\n        uint i=0;\r\n\r\n        for(i=0;i<trans_count;i++)\r\n        {\r\n            if(keccak256(transactions[i].to)==keccak256(to2)) \r\n            {\r\n                if(count==index)\r\n                    return (transactions[i].from,transactions[i].amount, transactions[i].duration);\r\n                else\r\n                    count++;\r\n            }\r\n        }\r\n    }\r\n\r\n\r\n    function getreq(address to2, address from2, uint amt2, uint duration2) public\r\n    {\r\n        \r\n        temp_trans.from=from2;\r\n         temp_trans.to=to2;\r\n        temp_trans.amount=amt2;\r\n        temp_trans.duration=duration2;\r\n        transactions.push(temp_trans);\r\n       trans_count++;\r\n\r\n\r\n    }\r\n\r\n    \r\n\r\n    \r\n    function newacc(string name2, int latitude2,int longitude2,string skills2) public \r\n    {\r\n        user_var.uid=serial++;\r\n        user_var.name=name2;\r\n        user_var.latitude=latitude2;\r\n        user_var.longitude=longitude2;\r\n        user_var.skills[0]=skills2;\r\n        user_var.no_skills=1;\r\n    }\r\n    \r\n\r\n    function newacc_2(uint exp2,string contact2,string uname2,string pass2,address add2) public\r\n     {       \r\n        user_var.exp=exp2;\r\n        user_var.contact=contact2;\r\n        user_var.uname=uname2;\r\n        user_var.pass=pass2;\r\n        user_var.add=add2;\r\n        user_var.no_requests=0;\r\n        \r\n        usernames.push(uname2);\r\n        accounts.push(user_var);\r\n        login_info[uname2]=pass2;\r\n        size++;\r\n\r\n    }\r\n\r\n    function check_account(string uname2, string pass2) public view returns (bool) \r\n    {\r\n        if(keccak256(login_info[uname2])==keccak256(pass2)) //account exists\r\n            {\r\n                    return true;   \r\n            }\r\n\r\n            return false;\r\n    }\r\n\r\n    function get_details_name(string uname2) public view returns (string name2, int latitude2,int longitude2,string skills2,uint exp2,string contact2,address add2)\r\n    {\r\n        uint i=0;\r\n\r\n        for(i=0;i<size;i++)\r\n        {\r\n            if(keccak256(accounts[i].uname)==keccak256(uname2))\r\n            {\r\n                return (accounts[i].name, accounts[i].latitude,accounts[i].longitude,accounts[i].skills[0],accounts[i].exp,accounts[i].contact,accounts[i].add);\r\n            }\r\n        }\r\n    }\r\n\r\n    function get_details_id(uint uid3) public view returns (string name2, int latitude2,int longitude2,string skills2,uint exp2,string contact2,address add2)\r\n    {\r\n        uint i=0;\r\n        uint uid2=uid3;\r\n\r\n        for(i=0;i<size;i++)\r\n        {\r\n            if(accounts[i].uid==uid2)\r\n            {\r\n                return (accounts[i].name, accounts[i].latitude,accounts[i].longitude,accounts[i].skills[0],accounts[i].exp,accounts[i].contact,accounts[i].add);\r\n            }\r\n        }\r\n    }\r\n\r\n    function getaccountlength() public view returns (uint256)\r\n    {\r\n        return size;\r\n    }\r\n\r\n    function get_id(string uname2) public view returns (uint id)\r\n    {\r\n        uint i=0;\r\n\r\n        for(i=0;i<size;i++)\r\n        {\r\n            if(keccak256(accounts[i].uname)==keccak256(uname2))\r\n            {\r\n                return accounts[i].uid;\r\n            }\r\n        }\r\n    }\r\n    \r\n}",
  "sourcePath": "C:\\Users\\Thamizh Nambi\\Desktop\\SIH Projects\\mul1\\contracts\\artisansregister.sol",
  "compiler": {
    "name": "solc",
    "version": "0.4.19+commit.c4cbbb05.Emscripten.clang"
  },
  "schemaVersion": "2.0.0",
  "updatedAt": "2018-03-31T09:06:51.741Z"
}